:100000000C94C8000C94E5000C94E5000C94E500F9
:100010000C94E5000C94E5000C94E5000C94E500CC
:100020000C94E5000C94E5000C94E5000C94E500BC
:100030000C94E5000C94E5000C94E5000C94E500AC
:100040000C94DB020C94E5000C94E5000C94E500A4
:100050000C94E5000C94E5000C94E5000C94E5008C
:100060000C94E5000C94E500084AD73B3BCE016EAA
:1000700084BCBFFDC12F3D6C74319ABD56833DDAFF
:100080003D00C77F11BED9E4BB4C3E916BAAAABE0E
:10009000000000803F0000407A10F35A00A0724E2A
:1000A00018090010A5D4E80000E87648170000E41D
:1000B0000B54020000CA9A3B000000E1F505000065
:1000C00080969800000040420F000000A0860100CA
:1000D0000000102700000000E8030000000064009A
:1000E000000000000A000000000001000000000005
:1000F0002C76D888DC674F0823DFC1DFAE59E1B129
:10010000B796E5E3E453C63AE651997696E8E6C237
:100110008426EB898C9B62ED407C6FFCEFBC9C9F3E
:1001200040F2BAA56FA5F490055A2AF75C936B6C60
:10013000F9676DC11BFCE0E40D47FEF520E6B50054
:10014000D0ED902E0300943577050080841E0800C2
:1001500000204E0A000000C80C333333330F986E72
:1001600012831141EF8D2114893BE65516CFFEE62F
:10017000DB18D1844B381BF77C1D901DA4BBE424F5
:10018000203284725E228100C9F124ECA1E53D2772
:1001900011241FBECFEFD8E0DEBFCDBF11E0A0E03D
:1001A000B1E0E8E2FAE102C005900D92A639B1078C
:1001B000D9F721E0A6E9B1E001C01D92AB3CB2073E
:1001C000E1F70E94E0030C94120D0C940000CF9311
:1001D000DF938BE30E94ED04C82FD0E0DC2FCC2707
:1001E0008CE30E94ED04BE01682B072E000C880BE7
:1001F000990B0E94AA0620E030E040E858E30E94F4
:1002000065076093C7017093C8018093C9019093FB
:10021000CA018DE30E94ED04C82FD0E0DC2FCC276B
:100220008EE30E94ED04BE01682B072E000C880BA4
:10023000990B0E94AA0620E030E040E858E30E94B3
:1002400065076093C3017093C4018093C5019093C7
:10025000C6018FE30E94ED04C82FD0E0DC2FCC272D
:1002600080E40E94ED04BE01682B072E000C880B71
:10027000990B0E94AA0620E030E040E858E30E9473
:1002800065076093BF017093C0018093C101909393
:10029000C20183E40E94ED04C82FD0E0DC2FCC27FC
:1002A00084E40E94ED04BE01682B072E000C880B2D
:1002B000990B0E94AA0623E333E343E851E40E942A
:1002C00036066093B7017093B8018093B90190939B
:1002D000BA0185E40E94ED04C82FD0E0DC2FCC27C2
:1002E00086E40E94ED04BE01682B072E000C880BEB
:1002F000990B0E94AA0623E333E343E851E40E94EA
:1003000036066093B3017093B4018093B501909366
:10031000B60187E40E94ED04C82FD0E0DC2FCC2783
:1003200088E40E94ED04BE01682B072E000C880BA8
:10033000990B0E94AA0623E333E343E851E40E94A9
:1003400036066093AF017093B0018093B101909332
:10035000B20181E40E94ED04C82FD0E0DC2FCC274D
:1003600082E40E94ED04BE01682B072E000C880B6E
:10037000990B0E94AA0620E030E04AEA53E40E946A
:10038000360628EB3EE142E152E40E9458056093B4
:10039000BB017093BC018093BD019093BE01DF91BE
:1003A000CF910895CF92DF92EF92FF921F93CF9358
:1003B000DF9310E0ABC083E40E94ED04C82FD0E0CF
:1003C000DC2FCC2784E40E94ED04BE01682B072EAD
:1003D000000C880B990B0E94AA0623E333E343E841
:1003E00051E40E9436066093B7017093B801809380
:1003F000B9019093BA0185E40E94ED04C82FD0E0C2
:10040000DC2FCC2786E40E94ED04BE01682B072E6A
:10041000000C880B990B0E94AA0623E333E343E800
:1004200051E40E9436066093B3017093B401809347
:10043000B5019093B60187E40E94ED04C82FD0E087
:10044000DC2FCC2788E40E94ED04BE01682B072E28
:10045000000C880B990B0E94AA0623E333E343E8C0
:1004600051E40E9436066B017C016093AF017093EA
:10047000B0018093B1019093B2012091B701309106
:10048000B8014091B9015091BA016091AB017091EE
:10049000AC018091AD019091AE010E94580560932E
:1004A000AB017093AC018093AD019093AE012091AC
:1004B000B3013091B4014091B5015091B601609102
:1004C000A7017091A8018091A9019091AA010E94B1
:1004D00058056093A7017093A8018093A901909398
:1004E000AA012091A3013091A4014091A50150914E
:1004F000A601C701B6010E9458056093A30170933D
:10050000A4018093A5019093A6011F5F183C08F4F5
:1005100052CF20E030E048E453E46091AB017091A9
:10052000AC018091AD019091AE010E9436066093BE
:10053000AB017093AC018093AD019093AE0120E0CC
:1005400030E048E453E46091A7017091A8018091E4
:10055000A9019091AA010E9436066093A7017093A9
:10056000A8018093A9019093AA0120E030E048E41B
:1005700053E46091A3017091A4018091A501909131
:10058000A6010E9436066093A3017093A401809394
:10059000A5019093A601DF91CF911F91FF90EF905D
:1005A000DF90CF90089583E085BD81E080936E0059
:1005B00086E086BD08951F920F920FB60F92112408
:1005C0008F9386E086BD809196018F5F8093960120
:1005D0008F910F900FBE0F901F901895CF92DF92C2
:1005E000EF92FF920F931F93CF93DF93CDB7DEB7B8
:1005F0006E970FB6F894DEBF0FBECDBF7E0185E1CA
:10060000E80EF11C6091C7017091C8018091C90189
:100610009091CA01870122E030E043E050E00E945F
:10062000D607FF92EF9280E091E09F938F93CE01E7
:1006300001966C019F938F930E94F607C6010E945A
:100640002E056091C3017091C4018091C501909104
:10065000C60122E030E043E050E00E94D607FF925E
:10066000EF928CE091E09F938F93DF92CF920E9464
:10067000F607C6010E942E056091BF017091C0016E
:100680008091C1019091C20122E030E043E050E04E
:100690000E94D607FF92EF9288E191E09F938F939B
:1006A000DF92CF920E94F607C6010E942E0560914C
:1006B000BB017091BC018091BD019091BE0122E00F
:1006C00030E043E050E00E94D607FF92EF9284E2D0
:1006D00091E09F938F93DF92CF920E94F607C6011D
:1006E0000E942E056091B7017091B8018091B90107
:1006F0009091BA0122E030E043E050E00E94D6073A
:10070000FF92EF928FE291E09F938F93DF92CF92CF
:100710000E94F607C6010E942E056091B3017091F8
:10072000B4018091B5019091B60122E030E043E040
:1007300050E00E94D607FF92EF928DE391E09F93E5
:100740008F93DF92CF920E94F6070FB6F894DEBF28
:100750000FBECDBFC6010E942E056091AF01709102
:10076000B0018091B1019091B20122E030E043E00C
:1007700050E00E94D607FF92EF928BE491E09F93A6
:100780008F93DF92CF920E94F607C6010E942E053A
:100790008AE00E9427050F900F900F900F900F9006
:1007A0000F906E960FB6F894DEBF0FBECDBFDF91EF
:1007B000CF911F910F91FF90EF90DF90CF90089510
:1007C0000E9405050E9409050E943B050E94D20176
:1007D0002FEF89EF90E0215080409040E1F700C07A
:1007E00000000E94D30278940E94E700C091960115
:1007F000CB30D0F32091C3013091C4014091C501A9
:100800005091C6016091C7017091C8018091C901E2
:100810009091CA010E94D70521EE3EE245E652E4DE
:100820000E9465076B017C0160939F017093A0019A
:100830008093A1019093A2012091AB013091AC0172
:100840004091AD015091AE016091B7017091B80136
:100850008091B9019091BA010E9457056093B70148
:100860007093B8018093B9019093BA012091A701C8
:100870003091A8014091A9015091AA016091B30162
:100880007091B4018091B5019091B6010E94570515
:100890006093B3017093B4018093B5019093B60156
:1008A0002091A3013091A4014091A5015091A6018E
:1008B0006091AF017091B0018091B1019091B2014E
:1008C0000E9457054B015C016093AF017093B0012A
:1008D0008093B1019093B2016C2F70E080E090E0C2
:1008E0000E94AA069B01AC01C501B4010E946507E4
:1008F0002FE632E143E85AE30E94650720919B010D
:1009000030919C0140919D0150919E010E9458059B
:1009100060939B0170939C0180939D0190939E0135
:1009200028E431EE4AE75FE30E9465074B015C0172
:100930002AE037ED43EA5CE3C701B6010E94650790
:100940009B01AC01C501B4010E9458056093970159
:10095000709398018093990190939A010E94EE02FE
:100960001092960141CF84EA8093BC008091BC0034
:100970008823E4F7089584E98093BC000895809368
:10098000BB0084E88093BC008091BC008823E4F71E
:100990000895882321F084E88093BC0003C084EC90
:1009A0008093BC008091BC008823E4F78091BB0059
:1009B0000895CF93DF93D82FC62F0E94B30480ED04
:1009C0000E94BF048D2F0E94BF048C2F0E94BF0481
:1009D0000E94BB04DF91CF910895CF93C82F0E944E
:1009E000B30480ED0E94BF048C2F0E94BF040E94BC
:1009F000B30481ED0E94BF0481E00E94C904C82FA6
:100A00000E94BB048C2FCF91089588E48093B80096
:100A100008952FEF82E597E0215080409040E1F764
:100A200000C0000067E089E10E94D90460E08AE12B
:100A30000E94D90468E18BE10E94D90460E08CE156
:100A40000E94D90461E08BE60E94D9040895909138
:100A5000C00095FFFCCF8093C6000895CF93DF932D
:100A6000EC0103C021960E94270588818111FACFED
:100A7000DF91CF91089588E08093C10086E0809354
:100A8000C2001092C50087E68093C4002FEF89E66C
:100A900098E1215080409040E1F700C000008DE8CF
:100AA00091E00E942E058AE00E9427050895505883
:100AB000BB27AA270E946F050C9423070E941507E5
:100AC00038F00E941C0720F039F49F3F19F426F4F7
:100AD0000C94EB060EF4E095E7FB0C94E506E92F89
:100AE0000E94340758F3BA17620773078407950703
:100AF00020F079F4A6F50C9456070EF4E0950B2E31
:100B0000BA2FA02D0B01B90190010C01CA01A0015F
:100B10001124FF27591B99F0593F50F4503E68F1BA
:100B20001A16F040A22F232F342F4427585FF3CFFB
:100B3000469537952795A795F0405395C9F77EF4CC
:100B40001F16BA0B620B730B840BBAF09150A1F015
:100B5000FF0FBB1F661F771F881FC2F70EC0BA0F9B
:100B6000621F731F841F48F4879577956795B79523
:100B7000F7959E3F08F0B0CF9395880F08F099271E
:100B8000EE0F9795879508950E94150760F080E80D
:100B900091E009F49EEF0E941C0728F040E851E024
:100BA00071F45EEF0CC00C94EB060C945607E92F21
:100BB000E0780E94340740F3092E052AB1F3261786
:100BC00037074807590738F00E2E07F8E02569F077
:100BD000E025E0640AC0EF6307F8009407FADB0140
:100BE000B9019D01DC01CA01AD01EF930E944D06E0
:100BF0000E9423070E9407065F91552339F02BEDD1
:100C00003FE049E450FD49EC0C9458050895DF930A
:100C1000DD27B92FBF7740E85FE3161617064807B0
:100C20005B0718F4D92F0E945D079F938F937F93E2
:100C30006F930E94D207E8E6F0E00E94EE060E9461
:100C400023072F913F914F915F910E947807DD23F9
:100C500051F09058A2EA2AED3FE049EC5FE3D078EA
:100C60005D270E946F05DF910C9423070E944A06BE
:100C70000C9423070E941C0758F00E94150740F0AF
:100C800029F45F3F29F00C94E50651110C945707A5
:100C90000C94EB060E94340768F39923B1F35523B3
:100CA00091F3951B550BBB27AA276217730784077F
:100CB00038F09F5F5F4F220F331F441FAA1FA9F315
:100CC00035D00E2E3AF0E0E832D091505040E69503
:100CD000001CCAF72BD0FE2F29D0660F771F881F64
:100CE000BB1F261737074807AB07B0E809F0BB0B57
:100CF000802DBF01FF2793585F4F3AF09E3F51056B
:100D000078F00C94E5060C9457075F3FE4F3983EA7
:100D1000D4F3869577956795B795F7959F5FC9F753
:100D2000880F911D9695879597F90895E1E0660FD4
:100D3000771F881FBB1F621773078407BA0720F04D
:100D4000621B730B840BBA0BEE1F88F7E0950895B6
:100D5000E89409C097FB3EF4909580957095619555
:100D60007F4F8F4F9F4F9923A9F0F92F96E9BB270B
:100D70009395F695879577956795B795F111F8CF87
:100D8000FAF4BB0F11F460FF1BC06F5F7F4F8F4FF2
:100D90009F4F16C0882311F096E911C0772321F0E8
:100DA0009EE8872F762F05C0662371F096E8862F80
:100DB00070E060E02AF09A95660F771F881FDAF7D7
:100DC000880F9695879597F9089597F99F6780E81A
:100DD00070E060E008959FEF80EC0895DF93CF937B
:100DE0001F930F93FF92EF92DF927B018C01689427
:100DF00006C0DA2EEF010E947807FE01E894A59163
:100E00002591359145915591A6F3EF010E946F050B
:100E1000FE019701A801DA9469F7DF90EF90FF9047
:100E20000F911F91CF91DF91089500240A94161617
:100E3000170618060906089500240A9412161306C8
:100E4000140605060895092E0394000C11F4882356
:100E500052F0BB0F40F4BF2B11F460FF04C06F5F72
:100E60007F4F8F4F9F4F089557FD9058440F551F48
:100E700059F05F3F71F04795880F97FB991F61F01C
:100E80009F3F79F087950895121613061406551F93
:100E9000F2CF4695F1DF08C0161617061806991FFF
:100EA000F1CF86957105610508940895E894BB27F4
:100EB00066277727CB0197F908959B01AC0160E085
:100EC00070E080E89FE30C9436060E9478070C944B
:100ED00023070E94150738F00E941C0720F0952375
:100EE00011F00C94E5060C94EB0611240C945707B2
:100EF0000E94340770F3959FC1F3950F50E0551F82
:100F0000629FF001729FBB27F00DB11D639FAA275E
:100F1000F00DB11DAA1F649F6627B00DA11D661FAD
:100F2000829F2227B00DA11D621F739FB00DA11DCE
:100F3000621F839FA00D611D221F749F3327A00D88
:100F4000611D231F849F600D211D822F762F6A2F24
:100F500011249F5750409AF0F1F088234AF0EE0F89
:100F6000FF1FBB1F661F771F881F91505040A9F7B6
:100F70009E3F510580F00C94E5060C9457075F3FA7
:100F8000E4F3983ED4F3869577956795B795F795F2
:100F9000E7959F5FC1F7FE2B880F911D969587956A
:100FA00097F908959B01AC010C946507EF920F939C
:100FB0001F93CF93DF93E80147FD02C034E001C0E7
:100FC00034E1042E000C550B57FF03C05195419599
:100FD0005109E32E022F242FAE010E94F909CE0100
:100FE000DF91CF911F910F91EF900895AEE0B0E0A7
:100FF000ECEFF7E00C94E90C0D891E8986E08C83F8
:101000001A8309838FEF9FE79E838D83AE01475E2E
:101010005F4F6F89788DCE0101960E941808EF818D
:10102000F885E00FF11F10822E96E4E00C94050D78
:10103000ABE0B0E0EEE1F8E00C94DB0C6C017B017E
:101040008A01FC0117821682838181FFCCC1CE0107
:1010500001963C01F6019381F70193FD859193FF81
:1010600081917F01882309F4BAC1853239F493FD57
:10107000859193FF81917F01853229F4B60190E03B
:101080000E94410CE7CF912C212C312CFFE1F3156C
:10109000D8F08B3279F038F4803279F08332A1F4D1
:1010A000232D20611DC08D3261F0803369F4232D22
:1010B000216016C0832D8260382EE32DE4603E2E21
:1010C0002AC0F32DF8601DC037FC2DC020ED280F7D
:1010D0002A3040F08E32B9F436FC81C1232D2064D1
:1010E000322E19C036FE06C08AE0989E200D1124CB
:1010F000922E11C0EAE02E9E200D1124222EF32DF7
:10110000F0623F2E08C08C3621F4832D8068382E83
:1011100002C0883641F4F70193FD859193FF8191D8
:101120007F018111B3CF982F9F7D9554933028F480
:101130000C5F1F4F9FE399830DC0833631F08337D7
:1011400071F0833509F059C021C0F801808189838D
:101150000E5F1F4F88248394912C530113C02801E4
:10116000F2E04F0E511CF801A080B18036FE03C0A2
:10117000692D70E002C06FEF7FEFC5010E94360C51
:101180004C018201F32DFF773F2E16C0280122E08B
:10119000420E511CF801A080B18036FE03C0692DBB
:1011A00070E002C06FEF7FEFC5010E942B0C4C0175
:1011B000F32DF0683F2E820133FC1BC0822D90E09E
:1011C00088169906B0F4B60180E290E00E94410CC6
:1011D0002A94F4CFF50137FC859137FE81915F01A8
:1011E000B60190E00E94410C21102A9421E0821A5D
:1011F00091088114910471F7E8C0843611F08936A2
:1012000041F5F80137FE07C06081718182819381C9
:101210000C5F1F4F08C060817181072E000C880B86
:10122000990B0E5F1F4FF32DFF763F2E97FF09C0DE
:1012300090958095709561957F4F8F4F9F4FF06887
:101240003F2E2AE030E0A3010E947D0C882E8618F4
:1012500045C0853731F4232D2F7EB22E2AE030E0B1
:1012600025C0932D997FB92E8F36C1F018F488359B
:1012700079F0B5C0803719F0883721F0B0C0E92F78
:10128000E061BE2EB4FE0DC0FB2DF460BF2E09C080
:1012900034FE0AC0292F2660B22E06C028E030E0B6
:1012A00005C020E130E002C020E132E0F801B7FEE5
:1012B00007C060817181828193810C5F1F4F06C0DE
:1012C0006081718180E090E00E5F1F4FA3010E945A
:1012D0007D0C882E8618FB2DFF773F2E36FE0DC025
:1012E000232D2E7FA22E891458F434FE0BC032FC1D
:1012F00009C0832D8E7EA82E05C0B82CA32C03C058
:10130000B82C01C0B92CA4FE0FC0FE01E80DF11DE0
:101310008081803321F49A2D997EA92E09C0A2FEE6
:1013200006C0B394B39404C08A2D867809F0B394B0
:10133000A3FC11C0A0FE06C0B21488F4280C922CA5
:101340009B180EC0B21460F4B60180E290E00E94D7
:10135000410CB394F7CFB21418F42B1802C0982C98
:10136000212CA4FE10C0B60180E390E00E94410C45
:10137000A2FE17C0A1FC03C088E790E002C088E588
:1013800090E0B6010CC08A2D867859F0A1FE02C00B
:101390008BE201C080E2A7FC8DE2B60190E00E94E2
:1013A000410C891438F4B60180E390E00E94410CAE
:1013B0009A94F7CF8A94F301E80DF11D8081B6016C
:1013C00090E00E94410C8110F5CF222009F442CE1A
:1013D000B60180E290E00E94410C2A94F6CFF6011B
:1013E0008681978102C08FEF9FEF2B96E2E10C94EC
:1013F000F70CA9E0B0E0EFEFF9E00C94E10C6A0122
:10140000122FB02E2BE3201720F0FF24F394F00EC0
:1014100002C02CE3F22E0F2D27E0AE014F5F5F4F8D
:101420000E94530BBC014981842F8970813031F0B7
:10143000E1FC06C0E0FE06C090E205C09DE203C0EC
:101440009BE201C090E05E2D507143FF3CC09111C2
:1014500002C083E001C084E0811718F4212F281B0B
:1014600001C020E051110BC0F601822F30E2882329
:1014700019F031938150FBCFC20ED11C20E099238B
:1014800029F0D6019C93F60131966F01C6010396AF
:10149000E2FE0AC03EE4D6013C9341E411964C932F
:1014A000119712963C9306C03EE6F601308341E662
:1014B00041833283FC01322F40E2332309F442C0DE
:1014C00041933150FACF42FF44C0911102C083E0F2
:1014D00001C084E0811718F4212F281B01C020E0EF
:1014E00051110BC0F601822F30E2882319F031939D
:1014F0008150FBCFC20ED11C20E0992329F0D601E8
:101500009C93F60131966F01C6010396E2FE0BC073
:1015100039E4D6013C933EE411963C93119736E4AE
:1015200012963C9307C039E6F60130833EE63183DC
:1015300036E63283FC01322F40E2332319F0419327
:101540003150FBCFFC01E20FF11D10828EEF9FEFB7
:10155000A6C021E030E0911102C020E030E0161674
:1015600017061CF4FB01319602C0E1E0F0E02E0FFB
:101570003F1FBB2021F0EB2DF0E0319602C0E0E0F0
:10158000F0E02E0F3F1FE12FF0E02E173F071CF475
:10159000121B212F01C020E08E2D887159F4F60115
:1015A000822F30E2882319F031938150FBCFC20E95
:1015B000D11C20E0992329F0D6019C93F6013196A5
:1015C0006F0151110BC0F601822F90E3882319F0AF
:1015D00091938150FBCFC20ED11C20E00F2D060F3E
:1015E0009A81342F307144FF03C0913309F40150C4
:1015F000101624F4093018F008E001C001E0AB0136
:1016000077FF02C040E050E0FB01E41BF50BA1E0D6
:10161000B0E0AC0FBD1FEA0FFB1F8EE2A82E4B01FE
:10162000801A91080B2D10E01195019511094F3F7B
:10163000BFEF5B0721F4D601AC9211966D016417E0
:1016400075072CF08416950614F4818101C080E39F
:10165000415051093196D60111967D01401751072D
:1016600024F0D6018C936701E2CF6417750739F433
:10167000963320F4953319F4311101C081E3F6015A
:101680008083F701822F90E2882319F09193815093
:10169000FBCFF701E20FF11D108280E090E0299668
:1016A000ECE00C94FD0C283008F027E03327DA0139
:1016B000990F311D87FD916000966105710539F420
:1016C00032602E5F3D9330E32A95E1F708959F3F06
:1016D00030F080387105610509F03C5F3C5F3D9357
:1016E000913008F08068911DDF93CF931F930F9383
:1016F000FF92EF92192F987F9695E92F96959695E0
:10170000E90FFF27E051FF4F99273327EE24FF24ED
:10171000A701E70105900894079428F4360FE71E07
:10172000F81E491F511D660F771F881F991F0694C9
:10173000A1F70590079428F4E70EF81E491F561FDD
:10174000C11D770F881F991F661F0694A1F705908A
:10175000079428F4F80E491F561FC71FD11D880F84
:10176000991F661F771F0694A1F70590079420F430
:10177000490F561FC71FD81F990F661F771F881F55
:101780000694A9F784911095177041F0D695C795E6
:1017900057954795F794E7941A95C1F7E6E9F0E075
:1017A00068941590159135916591959105907FE21A
:1017B0007395E118F10A430B560BC90BD009C0F71A
:1017C000E10CF11E431F561FC91FD01D7EF470335C
:1017D00011F48A95E6CFE894015030F0080F0AF42E
:1017E0000027021708F4202F2395022F7A3328F0C0
:1017F00079E37D932A95E9F710C07D932A9589F6C0
:10180000069497956795379517951794E118F10AFF
:10181000430B560BC90BD00998F023957E91739515
:101820007A3308F070E37C932013B8F77E917061EF
:101830007D9330F0839571E37D9370E32A95E1F712
:101840001124EF90FF900F911F91CF91DF91992775
:1018500087FD90950895FC0105906150704001103E
:10186000D8F7809590958E0F9F1F0895FC016150C9
:10187000704001900110D8F7809590958E0F9F1FB2
:1018800008950F931F93CF93DF93FB01238121FDD5
:1018900003C08FEF9FEF2CC022FF16C046815781F7
:1018A000248135814217530744F4A081B1819D0101
:1018B0002F5F3F4F318320838C93268137812F5FA9
:1018C0003F4F3783268314C08B01EC01FB0100845A
:1018D000F185E02D0995892BE1F6D80116968D91B9
:1018E0009C911797019617969C938E931697CE010D
:1018F000DF91CF911F910F910895FA01AA27283007
:1019000051F1203181F1E8946F936E7F6E5F7F4FCC
:101910008F4F9F4FAF4FB1E03ED0B4E03CD0670F48
:10192000781F891F9A1FA11D680F791F8A1F911D9B
:10193000A11D6A0F711D811D911DA11D20D009F4EB
:1019400068943F912AE0269F11243019305D31932D
:10195000DEF6CF010895462F4770405D4193B3E016
:101960000FD0C9F7F6CF462F4F70405D4A3318F0BD
:10197000495D31FD4052419302D0A9F7EACFB4E06E
:10198000A6959795879577956795BA95C9F7009726
:101990006105710508959B01AC010A2E06945795C7
:1019A000479537952795BA95C9F7620F731F841F1E
:1019B000951FA01D08952F923F924F925F926F92B4
:1019C0007F928F929F92AF92BF92CF92DF92EF92CF
:1019D000FF920F931F93CF93DF93CDB7DEB7CA1B50
:1019E000DB0B0FB6F894DEBF0FBECDBF09942A887B
:1019F000398848885F846E847D848C849B84AA8423
:101A0000B984C884DF80EE80FD800C811B81AA81AF
:101A1000B981CE0FD11D0FB6F894DEBF0FBECDBF7A
:081A2000ED010895F894FFCFD9
:101A2800204178203D202573206709002041792036
:101A38003D2025732067090020417A203D20257329
:101A4800206709002054203D2025732043090020E9
:101A58004778203D20257320642F7309002047799B
:101A6800203D20257320642F73090020477A203DEC
:101A780020257320642F730D0A0020796177203D9B
:101A88002025732064090020616363416E676C65DB
:101A9800203D20257320640900204779726F416E2C
:101AA800676C655A203D2025732064090055415212
:061AB80054204F4B00001A
:00000001FF
